:100000000C949C310C94CD310C94CD310C94CD31A9
:100010000C94CD310C94CD310C94CD310C94CD3168
:100020000C94CD310C94CD310C94CD310C94CD3158
:100030000C94CD310D94E5B00C94CD310C94CD31B0
:100040000C94CD310D9407220C94CD310C94CD310C
:100050000C94CD310C94CD310D9422350D94A6A87D
:100060000C94CD310C943D3C0C94CD310C94CD319D
:100070000C94CD310C94CD310C94CD310C94CD3108
:100080000C94CD310C94CD310C94CD310C94CD31F8
:100090000C94CD310C94CD310C94CD310C94CD31E8
:1000A0000C94CD310C94CD310C94CD310C94CD31D8
:1000B0000C94CD310C94CD310C94CD310C94CD31C8
:1000C0000C94CD310C94CD310C94CD310C947D3CFD
:1000D0000C94CD310C94CD310C94CD310C94CD31A8
:1000E0000C94CD313A01C4014E018001B2014201AC
:1000F000E40178013C016401F0018E01CC01DE01D4
:100100009401A001740152012A01E001CA015401C5
:100110005C01300136018801A60160013201D8017D
:100120004801CE01E8016801680168013401340129
:100130003401AC01B80134016A01F6012C01D60189
:10014000D001C201BC016201A8014A01F201920181
:10015000A20150018401BC01A40172015E012801C9
:100160009A0182019001B401BA015A01EC014401E3
:10017000BE016E01AE01C601D401BA01E201560111
:100180003801084AD73B3BCE016E84BCBFFDC12F6E
:100190003D6C74319ABD56833DDA3D00C77F11BE78
:1001A000D9E4BB4C3E916BAAAABE000000803F057B
:1001B000A84CCDB2D44EB93836A9020C50B99186AC
:1001C00088083CA6AAAA2ABE000000803F07634216
:1001D00036B79BD8A71A39685618AEBAAB558C1DDE
:1001E0003CB7CC5763BD6DEDFD753EF6177231BF60
:1001F000000000803F08000000BE922449123EAB80
:10020000AAAA2ABECDCCCC4C3E00000080BEABAA30
:10021000AAAA3E00000000BF000000803F000000CE
:100220000000084178D3BB4387D1133D190E3CC36E
:10023000BD4282AD2B3E68EC8276BED98FE1A93EED
:100240004C80EFFFBE01C4FF7F3F000000000000B4
:100250000D94AAAA0D94085B0D94F4A90D94648FD3
:100260000D94D1720D94FB730D94A1740D94E572ED
:100270000D94DFAA0D9471350D94F1350D94A064A1
:100280000D94A3250D94D1350D94BBAA0D94D1578F
:100290000D9439740D9427AA0D949D930D949B355C
:1002A0000D9454AA0D94EC5A0D94A8720D94DBAAE7
:1002B0000D94C8570D94B1AA0D94C0720D947CAAE8
:1002C0000D94EB730D9417AA0D94F5350D94F35915
:1002D0000D947B740D948D740D94383C0D94C3AAC9
:1002E0000D94DC950D9472AA0D94E05A0D94FB8048
:1002F0000D94EF350D94DB670D94794D0D94993A7B
:100300000D94A9350D949CAA0D945EAA0D94615686
:100310000D9404730D94C9540D94E44B0D94655AD7
:100320000D94A0AA0D943BAA0D94B25A0D943E3C94
:100330000D94D1880D94ADAA0D94D59A0D942F3CAF
:100340000D94D95A0D9445AA0D9468AA0D94CC73B6
:100350000D941FAA0D948D580D9483740D94C9AA01
:100360000D940A3C0D94C3350D94A6AA0D94E35741
:100370000D94B1740D94E4AA0D9486AA0D94BFAAAD
:100380000D94966C0D940DAA0D947F350D94CDAA05
:100390000D94FC480D9494720D947C5A0D946B74DA
:1003A0000D9403AA0D9430390D94D1AA0D94F9A996
:1003B0000D9418740D949FA10D9478AB0D94965ADA
:1003C0000D947C720D94D7AA0D94EB350D94414198
:1003D0000D9473740D94DA570D94B5AA0D94943E50
:1003E0000D94FD350D9431AA0D941E8B0D94EFA93B
:1003F00048617264636F6465642044656661756C0E
:10040000742053657474696E6773204C6F61646502
:10041000640053746F7265642073657474696E67E9
:1004200073207265747269657665640046696C61F3
:100430006D656E742073657474696E67733A2044D9
:10044000697361626C6564002020204D3230302079
:10045000440046696C616D656E74207365747469DF
:100460006E67733A002020204D323039205300410E
:1004700075746F2D526574726163743A20533D3008
:1004800020746F2064697361626C652C2031207464
:100490006F20696E7465727072657420657874720D
:1004A0007564652D6F6E6C79206D6F766573206154
:1004B00073207265747261637473206F7220726549
:1004C000636F766572696573002046002020204DB9
:1004D0003230382053005265636F7665723A20538C
:1004E0003D4578747261206C656E67746820286D74
:1004F0006D2920463A537065656420286D6D2F6D17
:100500002900205A002046002020204D323037207C
:100510005300526574726163743A20533D4C656EAA
:1005200067746820286D6D2920463A5370656564AC
:1005300020286D6D2F6D29205A3A205A4C69667417
:1005400020286D6D29002044002049002020204DE6
:10055000333034205000504944206865617462652E
:10056000642073657474696E67733A0020440020D8
:1005700049002020204D3330312050005049442084
:1005800073657474696E67733A00205A00205900CD
:1005900020204D323036205800486F6D65206F6640
:1005A0006673657420286D6D293A00204500205A35
:1005B0000020590020580020420020540020204DE7
:1005C000323035205300416476616E636564207675
:1005D00061726961626C65733A20533D4D696E20AA
:1005E000666565647261746520286D6D2F73292CB2
:1005F00020543D4D696E2074726176656C2066658D
:1006000065647261746520286D6D2F73292C2042FA
:100610003D6D696E696D756D207365676D656E748E
:100620002074696D6520286D73292C20583D6D61FB
:1006300078696D756D205859206A65726B20286D38
:100640006D2F73292C20205A3D6D6178696D756D71
:10065000205A206A65726B20286D6D2F73292C201B
:1006600020453D6D6178696D756D2045206A657224
:100670006B20286D6D2F73290020540020204D32EF
:100680003034205300416363656C65726174696F37
:100690006E3A20533D616363656C65726174696F86
:1006A0006E2C20543D7265747261637420616363C3
:1006B000656C65726174696F6E00204500205A0098
:1006C00020590020204D3230312058004D6178698A
:1006D0006D756D20416363656C65726174696F6EE1
:1006E00020286D6D2F7332293A00204500205A00D2
:1006F00020590020204D3230332058004D61786958
:100700006D756D2066656564726174657320286D12
:100710006D2F73293A00204500205A0020590020EF
:10072000204D393220580053746570732070657203
:1007300020756E69743A0053657474696E6773202E
:1007400053746F7265640020423A0020453A0054A9
:100750003A005A207368696674206170706C69652C
:10076000643A000A005A206C6976652061646A75F3
:100770007374206F7574206F662072616E67652ECA
:100780002053657474696E6720746F20302E204387
:100790006C69636B20746F20636F6E74696E75652E
:1007A0002E005A206C6976652061646A7573742026
:1007B0006F7574206F662072616E67652E205365B9
:1007C0007474696E6720746F20300020573A0020DF
:1007D000453A00543A004175746F0020452F443D5E
:1007E00000416476616E6365204B3D002200540039
:1007F000496E76616C6964205420636F64652E00D5
:10080000496E76616C6964204D20636F64652E00CB
:100810004D3232302053256900203A2000004C41EF
:100820004E472053454C20464F524345440022003A
:10083000205A3A0020593A0020453A00205A3A00FE
:1008400020593A00583A0030303030303030302DB6
:10085000303030302D303030302D303030302D30A1
:100860003030303030303030303030002055554965
:10087000443A0031002045585452554445525F4394
:100880004F554E543A005072757361206933204DB4
:100890004B3200204D414348494E455F5459504525
:1008A0003A00312E3000206261736564206F6E2043
:1008B0004D61726C696E204649524D574152455FF9
:1008C00055524C3A68747470733A2F2F6769746884
:1008D00075622E636F6D2F707275736133642F5064
:1008E000727573612D4669726D7761726520505221
:1008F0004F544F434F4C5F56455253494F4E3A0069
:100900004649524D574152455F4E414D453A50720E
:100910007573612D4669726D7761726520004D3186
:10092000313320530020002E0020423A0020453A67
:1009300000543A002042403A0020403A00202F0064
:100940003A00205400202F0020423A00202F006F50
:100950006B20543A003B207072696E742074696D8C
:10096000652072656D61696E696E6720696E206DC4
:10097000696E733A200053494C454E54204D4F4404
:10098000453A2050657263656E7420646F6E653AF7
:1009900020003B207072696E742074696D6520724E
:1009A000656D61696E696E6720696E206D696E7331
:1009B0003A20004E4F524D414C204D4F44453A2075
:1009C00050657263656E7420646F6E653A20002511
:1009D00069206D696E2C2025692073656300496E5E
:1009E00076616C6964204D20636F6465004D6573AA
:1009F0006820626564206C6576656C696E67206E40
:100A00006F74206163746976652E000A00202000EF
:100A10000A4D6561737572656420706F696E7473D9
:100A20003A000A5A207365617263682068656967D5
:100A300068743A20002C004E756D20582C593A20CD
:100A400000476F20686F6D652066696E6973686521
:100A500064004D65736820626564206C6576656C22
:100A6000696E6720616374697661746564005570AE
:100A700073616D706C652066696E6973686564008A
:100A8000426564206C6576656C696E6720636F7281
:100A900072656374696F6E2066696E6973686564F8
:100AA00000206D6963726F6E7300457863657373C0
:100AB00069766520626564206C6576656C696E6731
:100AC00020636F7272656374696F6E3A20004265CD
:100AD0006420636F7272656374696F6E2064617401
:100AE00061206E6F742076616C69640A00426564EF
:100AF00020636F7272656374696F6E2064617461E4
:100B00002076616C69640A00626162797374657051
:100B1000206170706C69656400636C65616E20753E
:100B2000702066696E697368656420004D4553489E
:100B30005F484F4D455F5A5F5345415243483A2005
:100B4000004D65736820626564206C6576656C692C
:100B50006E67207768696C65206C6F6F70206669BE
:100B60006E69736865642E00006D65736820626548
:100B700064206C6576656C696E673A20000A0059DE
:100B80003A200000583A20003A206E6F20787920F1
:100B9000636C616D70696E670A003A207879206332
:100BA0006C616D7065642E0A00002C2063616C69B5
:100BB00062726174696F6E207A3A20004265642027
:100BC0006C6576656C696E672C20706F696E743A1F
:100BD0002000005A206A697474657220646174612F
:100BE0002066726F6D205A2063616C2E206E6F74C8
:100BF0002076616C69642E0A005A206A69747465F3
:100C00007220646174612066726F6D205A20636186
:100C10006C2E2076616C69642E0A004E6F20636C26
:100C2000616D70696E6720666F7220666972737499
:100C30002063616C6962726174696F6E20706F69A4
:100C40006E742E0A0046697273742063616C696267
:100C5000726174696F6E20706F696E7420636C616D
:100C60006D7065642E0A00473238205730004732D5
:100C7000382057300054656D706572617475726507
:100C80002063616C6962726174696F6E20646F6E5B
:100C9000652E20436F6E74696E7565207769746880
:100CA000207072657373696E6720746865206B6E5F
:100CB0006F622E0000205A20736869667420286DC8
:100CC0006D293A0054656D70657261747572653A8C
:100CD0002000002F3600537465703A2000005A45FA
:100CE000524F3A20000050494E44412070726F62CA
:100CF000652063616C6962726174696F6E207374E0
:100D000061727400473238205730000A00205A3A86
:100D1000200020593A200020583A200025692068F8
:100D20006F757273202569206D696E757465730027
:100D300054494D454F55543A004D313130004675B8
:100D40006C6C20525820427566666572004D3239CF
:100D500000627573793A2070617573656420666FFF
:100D60007220696E70757400627573793A207061D3
:100D70007573656420666F722075736572006275A5
:100D800073793A2070726F63657373696E670020C0
:100D900055706C6F616420696E2070726F67726548
:100DA00073730020202020334420205072696E7419
:100DB00065727320202020002020204F726967690F
:100DC0006E616C2050727573612020200046616353
:100DD000746F72792052455345540053657020203A
:100DE00033203230323300436F6D70696C65643A82
:100DF0002000286E6F6E652C2064656661756C74CA
:100E000020636F6E66696729005365702020332068
:100E1000323032332032303A32383A313100737462
:100E20006172740020202020334420205072696EAB
:100E30007465727320202020002020204F72696783
:100E4000696E616C2050727573612020200025004E
:100E5000202020202020002020202020200045527B
:100E60004153494E4720616C6C20646174610046B7
:100E70006163746F72792052455345540022206695
:100E800061696C65643A20427566666572206675B4
:100E90006C6C2100456E717565696E6720746F20FA
:100EA0007468652066726F6E743A202200220045D5
:100EB0006E717565696E6720746F20746865206651
:100EC000726F6E743A20220022206661696C65643C
:100ED0003A204275666665722066756C6C21002248
:100EE00000FFFFFF0000A0400000A0400000004005
:100EF00000007A43333354439AD951430000000031
:100F0000CDCC0CC09A99193E00007A4300005243A0
:100F10000000524300000000CDCC0CC09A99193E4D
:100F20006563686F3A004572726F723A0000002183
:100F300010422063308440A550C660E770088129C4
:100F4000914AA16BB18CC1ADD1CEE1EFF13112105C
:100F50000273325222B5529442F772D66239931814
:100F6000837BB35AA3BDD39CC3FFF3DEE362244368
:100F70003420040114E664C774A44485546AA54B64
:100F8000B528850995EEE5CFF5ACC58DD5533672FC
:100F90002611163006D776F6669556B4465BB77AB4
:100FA000A719973887DFF7FEE79DD7BCC7C448E588
:100FB000588668A7784008611802282338CCC9ED04
:100FC000D98EE9AFF9488969990AA92BB9F55AD49C
:100FD0004AB77A966A711A500A333A122AFDDBDC54
:100FE000CBBFFB9EEB799B588B3BBB1AABA66C87A8
:100FF0007CE44CC55C222C033C600C411CAEED8FA4
:10100000FDECCDCDDD2AAD0BBD688D499D977EB63B
:101010006ED55EF44E133E322E511E700E9FFFBEF3
:10102000EFDDDFFCCF1BBF3AAF599F788F8891A9C6
:1010300081CAB1EBA10CD12DC14EF16FE18010A19D
:1010400000C230E3200450254046706760B98398A1
:1010500093FBA3DAB33DC31CD37FE35EF3B10290ED
:1010600012F322D2323542145277625672EAB5CB6D
:10107000A5A89589856EF54FE52CD50DC5E234C33D
:1010800024A01481046674476424540544DBA7FA41
:10109000B79987B8975FE77EF71DC73CD7D326F28D
:1010A000369106B01657667676154634564CD96D8D
:1010B000C90EF92FE9C899E9898AB9ABA9445865DD
:1010C0004806782768C018E1088238A3287DCB5CE1
:1010D000DB3FEB1EFBF98BD89BBBAB9ABB754A542D
:1010E0005A376A167AF10AD01AB32A923A2EFD0FAD
:1010F000ED6CDD4DCDAABD8BADE89DC98D267C077D
:101100006C645C454CA23C832CE01CC10C1FEF3E80
:10111000FF5DCF7CDF9BAFBABFD98FF89F176E36CC
:101120007E554E745E932EB23ED10EF01E7C3C3E38
:101130005E2B3D3F2F5B5D3B2C2A225C004D323401
:10114000004D3233202573006175746F25692E6759
:10115000004E6F74205344207072696E74696E671C
:10116000005344207072696E7420706175736564F9
:10117000000A002F000A002E0044656C6574696F38
:101180006E206661696C65642C2046696C653A2046
:101190000046696C652064656C657465643A002E70
:1011A000002E002E002E004E6F7720667265736849
:1011B0002066696C653A20004E6F7720646F696E17
:1011C000672066696C653A20002220706F730022E8
:1011D00020706172656E743A2200535542524F5529
:1011E00054494E452043414C4C20746172676574EC
:1011F0003A2200747279696E6720746F2063616CA3
:101200006C207375622D67636F64652066696C6519
:1012100073207769746820746F6F206D616E792018
:101220006C6576656C732E204D4158206C65766533
:101230006C2069733A005072757361206933204DD8
:101240004B32206F6B005072757361206933204DF3
:101250004B322072656164792E007A5F6D696E3A57
:1012600020007A5F6D61783A20005A204F666673DD
:10127000657400795F6D696E3A20005920767A6452
:10128000616C656E6F7374206F64206D696E3A00D7
:10129000592064697374616E63652066726F6D2096
:1012A0006D696E3A00416E6F0059657300785F6D2D
:1012B000696E3A200044657461696C792058595A06
:1012C000206B616C2E0058595A2063616C2E20648B
:1012D000657461696C73004E796E692070726F7607
:1012E000656475207A206B616C6962726163692E36
:1012F00000492077696C6C2072756E207A206361DA
:101300006C6962726174696F6E206E6F772E004E29
:10131000796E692070726F766564752078797A20AD
:101320006B616C6962726163692E205A61626572D9
:101330006520746F20707269626C697A6E65203105
:1013400032206D696E2E00492077696C6C207275B1
:101350006E2078797A2063616C6962726174696F5A
:101360006E206E6F772E2049742077696C6C207424
:10137000616B6520617070726F782E203132206D44
:10138000696E732E004E796E6920707265646568AF
:1013900072656A6920747279736B752070726F2040
:1013A000504C412E004E6F7720492077696C6C209D
:1013B00070726568656174206E6F7A7A6C652066FC
:1013C0006F7220504C412E00446F62727920646528
:1013D0006E2C206A73656D20766173652074697365
:1013E0006B61726E61204F726967696E616C20502B
:1013F000727573612069332E2043686365746520BC
:101400006162796368205661732070726F766564DB
:101410006C61206B616C69627261636E696D2070D2
:10142000726F636573656D3F0048692C20492061C8
:101430006D20796F7572204F726967696E616C20DB
:101440005072757361206933207072696E746572B1
:101450002E20576F756C6420796F75206C696B65F1
:10146000206D6520746F20677569646520796F75DC
:10147000207468726F75676820746865207365747E
:1014800075702070726F636573733F005A61636E8D
:1014900075207469736B6E6F7574206C696E6B75F3
:1014A00020612056792062756465746520706F73C1
:1014B0007475706E6520736E697A6F7661742074CE
:1014C0007279736B75206F746163656E696D2074DA
:1014D0006C616369746B6120646F6B7564206E6509
:1014E000646F7361686E657465206F7074696D6197
:1014F0006C6E69207679736B792E2050726F686CF0
:1015000065646E657465207369206F6272617A6BC1
:10151000792076206E6173692070726972756363D9
:10152000652076206B617069746F6C65204B616C0F
:1015300069627261636500492077696C6C2073741D
:1015400061727420746F207072696E74206C696EA1
:101550006520616E6420796F752077696C6C2067F7
:1015600072616475616C6C79206C6F776572207440
:101570006865206E6F7A7A6C6520627920726F746C
:101580006174696E6720746865206B6E6F622C20D1
:10159000756E74696C20796F75207265616368205F
:1015A0006F7074696D616C206865696768742E205E
:1015B000436865636B207468652070696374757235
:1015C000657320696E206F75722068616E64626F4A
:1015D0006F6B20696E20636861707465722043616F
:1015E0006C6962726174696F6E2E004E796E69204B
:1015F0007A6B616C696272756A6920767A64616C73
:10160000656E6F7374206D657A69206B6F6E6365AC
:101610006D20747279736B79206120706F767263BC
:1016200068656D2068656174626564752E004E6F33
:101630007720492077696C6C2063616C6962726104
:1016400074652064697374616E6365206265747784
:1016500065656E20746970206F6620746865206E01
:101660006F7A7A6C6520616E64206865617462656A
:101670006420737572666163652E004E656A6472DC
:10168000697620706F6D6F63692073656C66746531
:10169000737475207A6B6F6E746F6C756A69206EE7
:1016A000656A63617374656A7369206368796279D6
:1016B00020767A6E696B616A69636920707269204D
:1016C000736573746176656E69207469736B61729A
:1016D0006E792E0046697273742C20492077696CEC
:1016E0006C2072756E207468652073656C66746515
:1016F000737420746F20636865636B206D6F7374FF
:1017000020636F6D6D6F6E20617373656D626C79B0
:101710002070726F626C656D732E005370757374F8
:10172000656E692057697A617264612076796D61AE
:101730007A6520756C6F7A656E65207679736C6555
:10174000646B79207673656368206B616C69627283
:10175000616369206120737075737469206B616CBB
:1017600069627261636E692070726F636573206F66
:1017700064207A616361746B752E20506F6B7261A7
:10178000636F7661743F0052756E6E696E672057A5
:10179000697A6172642077696C6C2064656C657429
:1017A000652063757272656E742063616C69627224
:1017B0006174696F6E20726573756C747320616EED
:1017C000642073746172742066726F6D2074686532
:1017D00020626567696E6E696E672E20436F6E7456
:1017E000696E75653F00436863657465206F70615D
:1017F0006B6F76617420706F736C65646E69206BBB
:10180000726F6B206120706F7A6D656E69742076DF
:101810007A64616C656E6F7374206D657A6920748B
:101820007279736B6F75206120686561746265649D
:101830003F00446F20796F752077616E7420746F5C
:1018400020726570656174206C61737420737465B7
:101850007020746F20726561646A757374206469A6
:101860007374616E6365206265747765656E206E62
:101870006F7A7A6C6520616E642068656174626558
:10188000643F0057697A61726461206D757A65748E
:1018900065206B64796B6F6C6976207A6E6F7675F4
:1018A0002073707573746974207A206D656E75206D
:1018B00043616C6962726174696F6E202D3E2057BE
:1018C000697A61726400596F752063616E20616C82
:1018D0007761797320726573756D65207468652012
:1018E00057697A6172642066726F6D2043616C691A
:1018F00062726174696F6E202D3E2057697A617241
:10190000642E004A6520746F20504C412066696C3B
:10191000616D656E743F00497320697420504C41BD
:101920002066696C616D656E743F0050726F7369FB
:101930006D20766C6F7A746520504C412066696C1E
:10194000616D656E7420646F20657874727564656E
:1019500072752C20706F20746520737469736B6EC0
:1019600065746520746C616369746B6F2070726F4D
:10197000207A61766564656E692066696C616D6563
:101980006E74752E00506C6561736520696E7365A9
:10199000727420504C412066696C616D656E7420D4
:1019A000746F207468652065787472756465722C34
:1019B000207468656E207072657373206B6E6F6241
:1019C00020746F206C6F61642069742E0050726FF8
:1019D00073696D207A61766564746520504C41208E
:1019E00066696C616D656E74206120706F2074652E
:1019F000206F626E6F7674652057697A61726461D8
:101A000020737469736B6E7574696D20726573658C
:101A10007420746C616369746B612E00506C656135
:101A20007365206C6F616420504C412066696C6165
:101A30006D656E7420616E64207468656E207265D9
:101A400073756D652057697A6172642062792072BE
:101A500065626F6F74696E67207468652070726963
:101A60006E7465722E005072656465687269766185
:101A70006D20747279736B752E2050726F73696D5F
:101A80002063656B656A74652E00507265686561D8
:101A900074696E67206E6F7A7A6C652E20506C6563
:101AA00061736520776169742E004A652066696CF0
:101AB000616D656E74207A61766564656E3F00497C
:101AC000732066696C616D656E74206C6F6164650E
:101AD000643F00567365206A6520686F746F766F87
:101AE0002E00416C6C20697320646F6E652E204857
:101AF00061707079207072696E74696E6721005030
:101B0000726F73696D206F636973746574652068A3
:101B1000656174626564206120737469736B6E65BE
:101B2000746520746C616369746B6F2E00506C6512
:101B300061736520636C65616E20686561746265C0
:101B40006420616E64207468656E207072657373C2
:101B500020746865206B6E6F622E0050726F73691F
:101B60006D206E61686C65646E65746520646F20BD
:101B70006D616E75616C752061206F707261767435
:101B8000652070726F626C656D2E20506F207465D9
:101B9000206F626E6F7674652057697A6172646136
:101BA000207265626F6F746F76616E696D20746903
:101BB000736B61726E792E00506C65617365206382
:101BC0006865636B206F75722068616E64626F6F09
:101BD0006B20616E6420666978207468652070727D
:101BE0006F626C656D2E205468656E20726573752A
:101BF0006D65207468652057697A61726420627926
:101C0000207265626F6F74696E67207468652070FA
:101C100072696E7465722E0057697A617264002071
:101C20005761746368646F67205265736574004917
:101C30006E666F726D61636500496E666F207363D7
:101C40007265656E0043656B616E69206E61207A16
:101C500063686C61646E75746920747279736B79F2
:101C6000206120706F646C6F7A6B792E0057616908
:101C700074696E6720666F72206E6F7A7A6C652069
:101C8000616E642062656420636F6F6C696E6700CB
:101C90004B616C2E207072766E692076727374764A
:101CA00079004669727374206C6179657220636192
:101CB0006C2E005761697420666F722075736572AF
:101CC0002E2E2E00506F757A6974652062656865E6
:101CD0006D207469736B750055736564206475724B
:101CE000696E67207072696E740056796A6D6F75DF
:101CF000742066696C616D656E7400556E6C6F6101
:101D0000642066696C616D656E74005679736F75D9
:101D100076616D2066696C616D656E7400556E6CE0
:101D20006F6164696E672066696C616D656E7400D1
:101D3000556E6B6E6F776E20636F6D6D616E643A7A
:101D40002022004C616469740054756E6500534430
:101D50002063617264205B466C73684169725D0048
:101D600053442063617264205B666C7368416972DE
:101D70005D0053442063617264205B6E6F726D611D
:101D80006C5D005344206361726420205B6E6F724F
:101D90006D616C5D005465706C2E206B616C2E2043
:101DA0005B4F4E5D0054656D702E2063616C2E207C
:101DB0005B4F4E5D005465706C2E206B616C2E2065
:101DC0005B4F46465D0054656D702E2063616C2E3E
:101DD000205B4F46465D005465706C6F746E6920E1
:101DE0006B616C69627261636520646F6B6F6E63B7
:101DF000656E612E20506F6B726163756A74652029
:101E0000737469736B656D20746C616369746B6165
:101E10002E0054656D706572617475726520636122
:101E20006C6962726174696F6E2069732066696E95
:101E300069736865642E20436C69636B20746F203E
:101E4000636F6E74696E75652E005465706C2E201C
:101E50006B616C2E20202020202020202020005488
:101E6000656D702E2063616C2E20202020202020A4
:101E7000202020005465706C6F74610054656D7093
:101E80006572617475726500506F64706F72610085
:101E9000537570706F7274005A61737461766974EF
:101EA000207469736B0053746F70207072696E7464
:101EB0000053544F505045442E20005374657072A7
:101EC00061746520746F6F20686967683A20004309
:101ED000656C6B6F767920636173203A00546F7480
:101EE000616C207072696E742074696D65203A00AF
:101EF00046696C616D656E742063656C6B656D2001
:101F00003A00546F74616C2066696C616D656E7423
:101F1000203A00436173207469736B75203A202066
:101F2000005072696E742074696D653A2020004615
:101F3000696C616D656E74203A20200046696C61A1
:101F40006D656E7420757365643A2020005374616A
:101F500074697374696B61202000537461746973D0
:101F6000746963732020004572726F72202D207394
:101F70007461746963206D656D6F72792068617337
:101F8000206265656E206F7665727772697474651C
:101F90006E00527963686C6F73740053706565648A
:101FA00000536F756E64202020205B73696C656E32
:101FB000745D00536F756E642020202020205B6FBD
:101FC0006E63655D00536F756E64202020202020B5
:101FD0005B6C6F75645D0054726964656E69205B4B
:101FE0004361735D00536F727420202020202020F5
:101FF0005B74696D655D0054726964656E69205B30
:102000005A61646E655D00536F7274202020202039
:1020100020205B6E6F6E655D0054726964656E6949
:10202000205B416265636564615D00536F7274207B
:1020300020205B616C7068616265745D0054726938
:1020400064656E6920736F75626F727500536F728D
:1020500074696E672066696C65730020536F6674DF
:1020600077617265205265736574004C65686B65B5
:10207000207A6B6F73656E693A00536C6967687498
:1020800020736B65773A004D6F642020202020205C
:10209000205B74696368795D004D6F646520202062
:1020A00020205B73696C656E745D004D6F64202049
:1020B0005B7679732E2076796B6F6E5D004D6F6461
:1020C00065205B6869676820706F7765725D005393
:1020D000746176206B6F6E632E207370696E2E00B4
:1020E00053686F7720656E642073746F707300544B
:1020F000657A6B65207A6B6F73656E693A0053651C
:102100007665726520736B65773A004E6173746112
:10211000767465207465706C6F74753A00536574DD
:102120002074656D70657261747572653A005365EF
:10213000742063616C69627261746564004E6173DE
:10214000746176656E690053657474696E677300B7
:102150004368796261207A61706F6A656E690057C1
:102160006972696E67206572726F720053656C6682
:1021700020746573742073746172742020005A6B2C
:102180006F6E74726F6C756A7465203A00506C657E
:1021900061736520636865636B203A0053656C6604
:1021A0002074657374204F4B004E657A61706F6ABE
:1021B000656E6F20202020004E6F7420636F6E6E5E
:1021C0006563746564004D6F746F72004865617477
:1021D00065722F546865726D6973746F7200546F05
:1021E0006369207365005370696E6E696E67004E97
:1021F00065746F6369207365004E6F742073706936
:102200006E6E696E6700546573742076656E7469CE
:102210006C61746F72750046616E20746573740032
:1022200053656C66746573742073656C68616C20AB
:10223000200053656C6674657374206661696C6513
:10224000642020004C6576792076656E74206E617E
:10225000207472797363653F004C65667420686F03
:1022600074656E642066616E3F0053656C667465CC
:102270007374206572726F72202100456E647374EE
:102280006F70206E6F742068697400456E6473749B
:102290006F707300456E6473746F70005072656484
:1022A0006E69207469736B6F76792076656E743F02
:1022B0000046726F6E74207072696E742066616E73
:1022C0003F004B6F6E74726F6C61205A20617869A9
:1022D00073202000436865636B696E67205A206134
:1022E0007869732020004B6F6E74726F6C61205997
:1022F0002061786973202000436865636B696E67AD
:10230000205920617869732020004B6F6E74726FC2
:102310006C612058206178697320200043686563F0
:102320006B696E67205820617869732020004B6FBD
:102330006E74726F6C6120686F74656E642020002B
:10234000436865636B696E6720686F74656E6420AF
:1023500020004B6F6E74726F6C6120656E647374D5
:102360006F707300436865636B696E6720656E64A8
:1023700073746F7073004B6F6E74726F6C61206258
:102380006564202020202000436865636B696E67C8
:1023900020626564202020202000567365204F4B6A
:1023A000202020202020202020202000416C6C2094
:1023B000636F7272656374202020202020004265C4
:1023C00064202F204865617465720053656C6674E3
:1023D000657374202020202020202020005772695F
:1023E00074696E6720746F2066696C653A200076A8
:1023F0006F6C756D652E696E6974206661696C65B8
:1024000064002053697A653A20004B617274612040
:1024100076796A6D75746100436172642072656DCE
:102420006F766564005344207072696E74696E67DC
:10243000206279746520006F70656E206661696C3A
:1024400065642C2046696C653A20006F70656E5299
:102450006F6F74206661696C6564004B61727461B2
:1024600020766C6F7A656E61004361726420696EDC
:1024700073657274656400534420696E69742066E4
:1024800061696C0046696C652073656C6563746591
:10249000640046696C65206F70656E65643A200063
:1024A0006572726F722077726974696E6720746FDB
:1024B0002066696C650053442063617264206F6B11
:1024C0000043616E6E6F7420656E74657220737563
:1024D000626469723A200050726176793A005269FA
:1024E0006768743A004F626E6F766F76616E69202E
:1024F0007469736B7500526573756D696E672070D2
:1025000072696E74004F626E6F76656E69207469D1
:10251000736B7500526573756D696E6720707269B3
:102520006E7400506F6B7261636F766174005265F8
:1025300073756D65207072696E7400526573656E97
:10254000643A2000686F77746F2E70727573613310
:10255000642E637A00686F77746F2E707275736182
:1025600033642E636F6D00666F72756D2E707275B9
:10257000736133642E637A00666F72756D2E7072AC
:1025800075736133642E636F6D00707275736133A0
:10259000642E637A00707275736133642E636F6D9D
:1025A000005469736B20706F7A6173746176656E25
:1025B000005072696E7420706175736564005469AF
:1025C000736B20707265727573656E005072696E00
:1025D000742061626F727465640061207374697342
:1025E0006B6E65746520746C616369746B6F0061F8
:1025F0006E6420707265737320746865206B6E6FF3
:10260000620050726564656872656A7465207472F0
:1026100079736B7521005072656865617420746808
:1026200065206E6F7A7A6C6521005072656465680A
:10263000726576005072656865617400506F7765E9
:102640007255700050726F73696D2063656B656AB7
:10265000746500506C656173652077616974004E24
:10266000656A6472697665207A617665647465204E
:10267000504C412066696C616D656E742070726F9C
:1026800073696D2E00506C65617365206C6F6164B9
:1026900020504C412066696C616D656E74206669DE
:1026A0007273742E004A6520504C412066696C613B
:1026B0006D656E74207A61766564656E3F0049735E
:1026C00020504C412066696C616D656E74206C6FA2
:1026D000616465643F002020506C616E6E657242DB
:1026E000756666657242797465733A20004E61685A
:1026F000726976616E692050494E44410050494EDE
:1027000044412048656174696E67005469736B6168
:10271000726E61206E6562796C61207465706C6F99
:10272000746E65207A6B616C6962726F76616E613E
:102730000054656D70657261747572652063616CBB
:102740006962726174696F6E20686173206E6F7464
:10275000206265656E2072756E207965740050493F
:1027600044206B616C2E202020202020202020205F
:1027700020005049442063616C2E2020202020201E
:10278000202020202000504944206B616C2E2075B1
:102790006B6F6E63656E61005049442063616C2EFF
:1027A0002066696E697368656400504944206B61F6
:1027B0006C696272616365005049442063616C69B1
:1027C00062726174696F6E00506F7A6173746176C2
:1027D0006974207469736B00506175736520707241
:1027E000696E7400556D697374657465206C6973E6
:1027F0007420706170697275206E6120706F646CF6
:102800006F7A6B752061207564727A756A746520C1
:102810006A656A20706F6420747279736B6F7520BB
:10282000626568656D206D6572656E69207072768F
:102830006E696368203420626F64752E20506F6B60
:10284000756420747279736B61207A61636879743E
:10285000692070617069722C207679706E6574657C
:10286000207469736B61726E752E00506C616365C4
:102870002061207368656574206F662070617065E3
:102880007220756E64657220746865206E6F7A7A46
:102890006C6520647572696E672074686520636179
:1028A0006C6962726174696F6E206F66206669720E
:1028B0007374203420706F696E74732E2049662003
:1028C000746865206E6F7A7A6C65206361746368E2
:1028D0006573207468652070617065722C20706F5C
:1028E000776572206F666620746865207072696E05
:1028F00074657220696D6D6564696174656C792EAB
:10290000006F6B004F6666004E6F206D6F76652E10
:10291000005A61646E61205344206B6172746100DF
:102920004E6F205344206361726400547279736B5C
:1029300061004E6F7A7A6C650046696C616D656EF8
:1029400074206E657A61766564656E0046696C61B7
:102950006D656E74206E6F74206C6F6164656400C9
:102960004261727661206E656E692063697374617D
:1029700000436F6C6F72206E6F7420636C656172C0
:10298000004E65004E6F0050726F73696D20616B71
:102990007475616C697A756A74652E00506C656136
:1029A000736520757067726164652E005679736C6B
:1029B00061206E6F7661207665727A652066697235
:1029C0006D776172653A004E6577206669726D7742
:1029D0006172652076657273696F6E2061766169D8
:1029E0006C61626C653A00506F73756E6F75742020
:1029F0005A004D6F7665205A00506F73756E6F7573
:102A0000742059004D6F7665205900506F73756EB4
:102A10006F75742058004D6F7665205800457874A6
:102A20007275646572004B616C69627261636520E6
:102A30005A2E204F746163656E696D20746C6163FA
:102A400069746B6120706F73756E7465205A206FA6
:102A5000737520617A206B7E686F726E696D752068
:102A6000646F72617A752E20506F7476726474652B
:102A700020746C616369746B656D2E0043616C69D1
:102A800062726174696E67205A2E20526F7461748D
:102A90006520746865206B6E6F6220746F206D6FA7
:102AA000766520746865205A206361727269616777
:102AB0006520757020746F2074686520656E6420D1
:102AC00073746F70706572732E20436C69636B2032
:102AD0007768656E20646F6E652E004B616C69626D
:102AE000726163652058595A2E204F746163656E78
:102AF000696D20746C616369746B6120706F7375AC
:102B00006E7465205A206F737520617A206B7E6821
:102B10006F726E696D7520646F72617A752E2050C8
:102B20006F74767264746520746C616369746B652C
:102B30006D2E0043616C6962726174696E67205822
:102B4000595A2E20526F7461746520746865206B29
:102B50006E6F6220746F206D6F76652074686520DB
:102B60005A20636172726961676520757020746FA5
:102B70002074686520656E642073746F7070657270
:102B8000732E20436C69636B207768656E20646FD9
:102B90006E652E00506F73756E6F7574206F737550
:102BA000004D6F76652061786973004D657368200C
:102BB000426564204C6576656C696E67004B616C9C
:102BC0006962726163650043616C69627261746914
:102BD0006F6E00207A203900206F662039004D6525
:102BE00072696D207265666572656E636E692076C6
:102BF00079736B75206B616C69627261636E696871
:102C00006F20626F6475004D6561737572696E67E0
:102C1000207265666572656E6365206865696768C0
:102C200074206F662063616C6962726174696F6E93
:102C300020706F696E74004D6572656E65207A6BE9
:102C40006F73656E693A004D6561737572656420D6
:102C5000736B65773A00486C61766E69206E6162CD
:102C600069646B61004D61696E004D3232312049FB
:102C70006E76616C69642065787472756465722023
:102C8000004D32313820496E76616C696420657878
:102C900074727564657220004D32303020496E7652
:102CA000616C696420657874727564657220005285
:102CB00065706F7274696E6720656E6473746F708F
:102CC00020737461747573004D313137204B616C22
:102CD0002E207072766E6920767273747679004D4C
:102CE000313137204669727374206C6179657220C6
:102CF00063616C2E004D31303920496E76616C690C
:102D00006420657874727564657220004D313035C9
:102D100020496E76616C69642065787472756465AB
:102D20007220004D31303420496E76616C69642028
:102D30006578747275646572200055766F6C6E6587
:102D40006E612072656D656E69636B61004C6F6FBB
:102D500073652070756C6C6579005A617665737463
:102D60002066696C616D656E74004C6F61642066ED
:102D7000696C616D656E74005A61766164656E6937
:102D80002066696C616D656E7475004C6F61646975
:102D90006E672066696C616D656E7400436973745B
:102DA000656E69206261727679004C6F6164696E4C
:102DB0006720636F6C6F72004C6576793A004C65E2
:102DC00066743A005679626572206A617A796B613D
:102DD0000053656C656374206C616E67756167652F
:102DE0000043657374696E6100456E676C69736852
:102DF000004B494C4C45442E2000496E76616C696D
:102E00006420657874727564657200566C6F7A74AC
:102E1000652066696C616D656E7400496E736572DC
:102E2000742066696C616D656E7400207A203900CB
:102E3000206F662039005A6C657073756A6920705E
:102E40007265736E6F7374206B616C69627261631B
:102E50006E69686F20626F647500496D70726F767D
:102E6000696E67206265642063616C696272617477
:102E7000696F6E20706F696E74004B616C6962726D
:102E8000756A69205A0043616C6962726174696E87
:102E900067205A004B616C696272616365204F4B19
:102EA0000043616C6962726174696F6E20646F6E59
:102EB00065004B616C6962726F766174205A0043E1
:102EC000616C696272617465205A005A6168726946
:102ED00076616E69204F4B2E0048656174696E679C
:102EE00020646F6E652E005A6168726976616E6942
:102EF0000048656174696E67002046726565204D03
:102F0000656D6F72793A20005469736B61726E61FE
:102F1000206E6562796C61206A65737465207A6BD6
:102F2000616C6962726F76616E612E20506F73748E
:102F30007570756A74652070726F73696D20706F3B
:102F4000646C65206D616E75616C752C206B6170B1
:102F500069746F6C61205A6163696E616D652C20C4
:102F60006F6473746176656320506F73747570203D
:102F70006B616C6962726163652E005072696E7478
:102F8000657220686173206E6F74206265656E20C3
:102F900063616C69627261746564207965742E2066
:102FA000506C6561736520666F6C6C6F7720746818
:102FB00065206D616E75616C2C206368617074654D
:102FC000722046697273742073746570732C207359
:102FD000656374696F6E2043616C696272617469C4
:102FE0006F6E20666C6F772E00507275746F6B0079
:102FF000466C6F7700446F6B6F6E636F76616E69BE
:1030000020706F687962750046696E697368696ED1
:1030100067206D6F76656D656E747300207A20345D
:1030200000206F66203400486C6564616D206B6120
:103030006C69627261636E6920626F6420706F6494
:103040006C6F7A6B7900536561726368696E672093
:103050006265642063616C6962726174696F6E207D
:10306000706F696E74004974657261636520004910
:103070007465726174696F6E2000446F6E652073B1
:103080006176696E672066696C652E00446F6E65B7
:10309000207072696E74696E672066696C65005392
:1030A0006F75626F72206E656B6F6D706C65746E9C
:1030B000692E20506F6B7261636F7661743F0046BA
:1030C000696C6520696E636F6D706C6574652E2028
:1030D000436F6E74696E756520616E797761793FB3
:1030E000004E656B7465726520736F75626F7279DF
:1030F000206E656275646F752073657472696465AE
:103100006E792E204D6178696D616C6E6920706FEB
:1031100063657420736F75626F72752070726F20B3
:10312000736574726964656E69206A652031303038
:103130002E00536F6D652066696C65732077696C2E
:103140006C206E6F7420626520736F727465642EDC
:10315000204D61782E204E6F2E206F662066696CA0
:10316000657320696E203120666F6C64657220661D
:103170006F7220736F7274696E67206973203130CB
:10318000302E004A65206261727661206369737433
:10319000613F00497320636F6C6F7220636C6561DF
:1031A000723F0056796D656E69742066696C616D59
:1031B000656E74004368616E67652066696C616D59
:1031C000656E7400527963686C6F73742076656EF7
:1031D000742E0046616E20737065656400656E71C3
:1031E0007565696E67202200457874727564657232
:1031F000002045787465726E616C20526573657449
:10320000005072696E7465722073746F70706564BB
:103210002064756520746F206572726F72732E2042
:1032200046697820746865206572726F7220616EDD
:103230006420757365204D39393920746F207265AB
:1032400073746172742E202854656D706572617498
:103250007572652069732072657365742E205365DD
:10326000742069742061667465722072657374617C
:103270007274696E6729004E6F204C696E65204E2E
:10328000756D626572207769746820636865636B29
:1032900073756D2C204C617374204C696E653A20F7
:1032A000004E6F20436865636B73756D207769749A
:1032B00068206C696E65206E756D6265722C204C9D
:1032C000617374204C696E653A200020746F6F2022
:1032D0006C6F6E6720657874727573696F6E20709D
:1032E000726576656E746564004C696E65204E7516
:1032F0006D626572206973206E6F74204C61737407
:10330000204C696E65204E756D6265722B312C20E4
:103310004C617374204C696E653A20005072696E7E
:103320007465722068616C7465642E206B696C6CC6
:1033300028292063616C6C6564210020636F6C64D4
:1033400020657874727573696F6E2070726576652A
:103350006E74656400636865636B73756D206D6979
:10336000736D617463682C204C617374204C696EBA
:10337000653A200043485942413A004552524F5263
:103380003A00456E642066696C65206C6973740050
:103390006F70656E00545249474745524544006579
:1033A0006E6473746F7073206869743A2000536C94
:1033B0006565702E2E2E005679706E6F7574206DB7
:1033C0006F746F72790044697361626C6520737405
:1033D0006570706572730044656661756C746E69C2
:1033E000206E6173746176656E69206E61687261CA
:1033F0006E6F0044656661756C74207365747469E2
:103400006E6773206C6F6164656400446174756DF0
:103410003A00446174653A00506F757A6520616BBB
:103420007475616C6E690043757272656E7400200C
:10343000436F756E7420583A200056796D656E6141
:10344000206F6B3F004368616E67656420636F7235
:10345000726563746C793F005A63686C6164697467
:1034600000436F6F6C646F776E0050726F207573DE
:103470007065736E6F75206B616C696272616369F0
:10348000206F636973746574652070726F73696D02
:10349000207469736B6F766F7520747279736B75B6
:1034A0002E20506F74767264746520746C61636949
:1034B000746B656D2E00506C6561736520636C657F
:1034C000616E20746865206E6F7A7A6C6520666F15
:1034D000722063616C6962726174696F6E2E204341
:1034E0006C69636B207768656E20646F6E652E0073
:1034F000446F6A656C79206F6261205A20766F7A1A
:10350000696B79206B7E686F726E696D7520646F70
:1035100072617A753F00417265206C656674206146
:103520006E64207269676874205A7E636172726982
:103530006167657320616C6C2075703F00204C6181
:10354000737420557064617465643A200056796222
:10355000657274652065787472756465723A0043AB
:10356000686F6F73652065787472756465723A0070
:103570005A6D656E612075737065736E61210043CD
:1035800068616E67652073756363657373210053AB
:10359000747265643A0043656E7465723A005469EA
:1035A000736B207A205344005072696E74206672E7
:1035B0006F6D205344005465706C6F742E206B61E6
:1035C0006C6962726163650054656D702E20636181
:1035D0006C6962726174696F6E005A6B616C6962CA
:1035E000726F7661740043616C6962726174650028
:1035F00052657365742058595A206B616C69627208
:103600002E0052657365742058595A2063616C69A5
:1036100062722E004B616C69627261636520585959
:103620005A0043616C6962726174652058595A008E
:103630002042726F776E206F7574205265736574C7
:1036400000426567696E2066696C65206C697374F9
:10365000004B616C6962726163652058595A206E33
:1036600065707265736E612E20507261767920707C
:103670007265646E6920626F64206D6F632076707E
:10368000726564752E0058595A2063616C696272C4
:103690006174696F6E20636F6D70726F6D697365B1
:1036A000642E2052696768742066726F6E7420639E
:1036B000616C6962726174696F6E20706F696E749B
:1036C000206E6F7420726561636861626C652E00A4
:1036D0004B616C6962726163652058595A206E654E
:1036E000707265736E612E204C65767920707265FC
:1036F000646E6920626F64206D6F632076707265FE
:1037000064752E0058595A2063616C696272617445
:10371000696F6E20636F6D70726F6D697365642E73
:10372000204C6566742066726F6E742063616C69EC
:1037300062726174696F6E20706F696E74206E6F53
:103740007420726561636861626C652E004B616C08
:103750006962726163652058595A206E657072659E
:10376000736E612E20507265646E69206B616C69A6
:10377000627261636E6920626F6479206D6F63208D
:103780007670726564752E0058595A2063616C69B1
:1037900062726174696F6E20636F6D70726F6D69B4
:1037A0007365642E2046726F6E742063616C69626B
:1037B000726174696F6E20706F696E7473206E6FC2
:1037C0007420726561636861626C652E004B616C88
:1037D0006962726163652058595A207620706F7251
:1037E00061646B752E20582F59206F7379206D6995
:1037F000726E65207A6B6F73656E652E20446F6202
:103800007261207072616365210058595A206361AA
:103810006C6962726174696F6E20616C6C20726990
:103820006768742E20582F59206178657320617263
:103830006520736C696768746C7920736B65776554
:10384000642E20476F6F64206A6F6221004B616CA9
:103850006962726163652058595A207620706F72D0
:1038600061646B752E205A6B6F73656E692062758B
:103870006465206175746F6D617469636B7920761E
:1038800079726F766E616E6F2070726920746973E1
:103890006B752E0058595A2063616C6962726174AD
:1038A000696F6E20616C6C2072696768742E20539A
:1038B0006B65772077696C6C20626520636F72722C
:1038C0006563746564206175746F6D6174696361AB
:1038D0006C6C792E004B616C696272616365205873
:1038E000595A2073656C68616C612E204B616C695C
:1038F000627261636E6920626F6420706F646C6FC6
:103900007A6B79206E656E616C657A656E2E0058F3
:10391000595A2063616C6962726174696F6E2066C6
:1039200061696C65642E204265642063616C696224
:10393000726174696F6E20706F696E742077617345
:10394000206E6F7420666F756E642E004B616C691B
:1039500062726163652058595A207620706F7261D7
:10396000646B752E20582F59206F7379206A736FFE
:1039700075206B6F6C6D652E2047726174756C7568
:103980006A69210058595A2063616C6962726174D6
:10399000696F6E206F6B2E20582F592061786573E8
:1039A000206172652070657270656E646963756C04
:1039B00061722E20436F6E67726174756C617469F9
:1039C0006F6E7321004B616C696272616365205890
:1039D000595A2073656C68616C612E204E61686C69
:1039E00065646E65746520646F206D616E75616CD1
:1039F000752E0058595A2063616C6962726174694E
:103A00006F6E206661696C65642E20506C65617311
:103A10006520636F6E73756C7420746865206D61CA
:103A20006E75616C2E004B616C696272616365201A
:103A300058595A2073656C68616C612E2050726110
:103A4000767920707265646E6920626F64206D6F94
:103A500063207670726564752E2053726F766E6582
:103A60006A7465207469736B61726E752E005859A3
:103A70005A2063616C6962726174696F6E2066615D
:103A8000696C65642E2052696768742066726F6E77
:103A9000742063616C6962726174696F6E20706F0B
:103AA000696E74206E6F7420726561636861626C08
:103AB000652E004B616C6962726163652058595ACA
:103AC0002073656C68616C612E204C65767920707E
:103AD0007265646E6920626F64206D6F632076701A
:103AE000726564752E2053726F766E656A746520F8
:103AF0007469736B61726E752E0058595A20636138
:103B00006C6962726174696F6E206661696C65646C
:103B10002E204C6566742066726F6E742063616C33
:103B20006962726174696F6E20706F696E74206E65
:103B30006F7420726561636861626C652E004B6111
:103B40006C6962726163652058595A2073656C68AC
:103B5000616C612E20507265646E69206B616C69C6
:103B6000627261636E6920626F6479206D6F632099
:103B70007670726564752E2053726F766E656A7406
:103B800065207469736B61726E752E0058595A20E6
:103B900063616C6962726174696F6E206661696CE1
:103BA00065642E2046726F6E742063616C69627268
:103BB0006174696F6E20706F696E7473206E6F74BC
:103BC00020726561636861626C652E004B616C698F
:103BD0006272616365205A2073656C68616C612E46
:103BE0002053656E736F72206A65206F64706F6A10
:103BF000656E79206E65626F20707265727573658F
:103C00006E79206B6162656C2E2043656B616D205F
:103C10006E612072657365742E00426564206C6568
:103C200076656C696E67206661696C65642E2053E9
:103C3000656E736F7220646973636F6E6E65637413
:103C40006564206F72206361626C652062726F6BC5
:103C5000656E2E2057616974696E6720666F7220E9
:103C600072657365742E004B616C69627261636585
:103C7000205A2073656C68616C612E2053656E73E9
:103C80006F72206E657365706E756C2E205A6E654E
:103C900063697374656E6120747279736B613F2020
:103CA00043656B616D206E612072657365742E00D3
:103CB000426564206C6576656C696E672066616933
:103CC0006C65642E2053656E736F72206469646E38
:103CD0007420747269676765722E20446562726928
:103CE00073206F6E206E6F7A7A6C653F2057616922
:103CF00074696E6720666F722072657365742E003A
:103D00004B616C696272616365205A2073656C68EF
:103D1000616C612E2053656E736F72207365706ED7
:103D2000756C207072696C6973207679736F6B6F34
:103D30002E2043656B616D206E6120726573657422
:103D40002E00426564206C6576656C696E6720663E
:103D500061696C65642E2053656E736F7220747296
:103D60006967676572656420746F6F20686967684A
:103D70002E2057616974696E6720666F72207265C4
:103D80007365742E005A6168726976616E6920628B
:103D90006564004265642048656174696E6700422D
:103DA0006564204F4B2E0042656420646F6E650091
:103DB00056707261766F205B756D5D005269676841
:103DC0007420736964655B756D5D0052657365741D
:103DD00000567A61647520205B756D5D00526561E7
:103DE000722073696465205B756D5D004B6F726551
:103DF0006B636520706F646C6F7A6B7900426564E9
:103E0000206C6576656C20636F7272656374005612
:103E10006C65766F20205B756D5D004C6566742067
:103E200073696465205B756D5D00567072656475BD
:103E3000205B756D5D0046726F6E742073696465FA
:103E40005B756D5D00426564004E656E69207A6B3E
:103E5000616C6962726F76616E6120767A64616C02
:103E6000656E6F737420747279736B79206F642040
:103E70007469736B6F766520706F646C6F7A6B79A1
:103E80002E20506F73747570756A74652070726F30
:103E900073696D20706F646C65206D616E75616C07
:103EA000752C206B617069746F6C61205A61636955
:103EB0006E616D652C206F64737461766563204E4E
:103EC0006173746176656E69207072766E692076B2
:103ED00072737476792E0044697374616E63652021
:103EE0006265747765656E20746970206F662074F2
:103EF0006865206E6F7A7A6C6520616E64207468E4
:103F0000652062656420737572666163652068610F
:103F100073206E6F74206265656E207365742079FE
:103F200065742E20506C6561736520666F6C6C6FD4
:103F30007720746865206D616E75616C2C206368F4
:103F40006170746572204669727374207374657051
:103F5000732C2073656374696F6E20466972737485
:103F6000206C617965722063616C69627261746949
:103F70006F6E2E00446F6C6164656E69206F73799B
:103F8000205A004C6976652061646A757374205A02
:103F900000446F737461766F76616E69205A0041D8
:103FA000646A757374696E67205A004D6F64205B94
:103FB0006175746F6D617469636B795D004D6F64D9
:103FC00065205B6175746F20706F7765725D00416D
:103FD00075746F20686F6D6500207C204175746872
:103FE0006F723A200056736500416C6C0041637437
:103FF0006976652045787472756465723A2000466A
:104000001236125A1262126A12731290127B12A99D
:1040100012A512AD12C612B512F112D71247130F24
:1040200013A51385132914C81337158C142E16EBFA
:1040300015D4167B1687171B173218E617C6188378
:10404000181719031985192B191C1ACD198A1A6604
:104050001ABF1AAA1AE21AD31A2D1BFF1AB81B5B31
:104060001B181C1F1C391C2F1C6D1C451CA21C90EE
:104070001CB31CD81CC41CFB1CEA1C1D1D0B1D30D2
:104080001D491D431D601D4E1D831D721DA51D95DF
:104090001DC61DB51D121ED71D5F1E4A1E7C1E7437
:1040A0001E901E881EA61E981EB11EBB1EDD1ECFB2
:1040B0001E021FF01E211F131F3C1F2F1F5A1F4DD2
:1040C0001F671F9B1F921FA11FB31FC51FE51FD78F
:1040D0001F0720F71F2B2019204D203D205B207A41
:1040E000206B2099208720BD20AB20E020CF20FE30
:1040F00020EF201D210B212E2147213D215F215042
:10410000216C218D217E219C21B821A921C621CCA1
:1041100021E621DE21F921EF211722062232222079
:1041200022592244226A227B228B229422B1229C91
:1041300022D422C222F822E6221C230A2340232E64
:10414000236423522388237623AC239A23BE23CBD4
:1041500023DD23EF23022418240A24252437244BAB
:104160002469245B24772484249224A024B624C1C7
:1041700024DE24D724F624E524142505252E252322
:10418000253B25552544257825672595258A25B184
:1041900025A125CC25BE25EF25DA251626022634B5
:1041A000262A263C265326442685265F26BE26A59B
:1041B00026D626FD26ED2631270B2772275E279867
:1041C000278627B827AA27D827C8276B28E42701DE
:1041D00029042908292029112932292B294C293978
:1041E0002971296029842981299C298729C729AC1B
:1041F00029F229E729042AF929162A0B2A1D2A7CE3
:104200002A262A332BDB2AA12B942BAB2BC72BBDC1
:104210002BD82BD32B072CDE2B472C372C652C5679
:104220002C6A2C812C982CAF2CDF2CC82CF52C0C54
:104230002D232D4D2D3A2D6A2D5A2D8B2D782DAAFB
:104240002D9C2DBE2DB82DD12DC42DE92DE12DF1A4
:104250002DFA2D1B2E0B2E302E2B2E5A2E362E865F
:104260002E7A2EA12E942EBF2EB22ED92ECB2EF129
:104270002EE72EF92E7B2F082FF02FE92F0830F58F
:104280002F21301C30463027306F3066307A308C2A
:1042900030BF309F303231E13093318331B431A3BC
:1042A00031D331C431DD31E831F13101327732A11E
:1042B00032CB32E9321C333B3355337B3374338298
:1042C00033903395339F33AE33C633B733F333D79D
:1042D0003312340B34273418342F3445343A3461D4
:1042E000345834B6346A341635F0343D355F354DC4
:1042F000357F35703596358F35A8359E35C835B63E
:1043000035E635DA350236F03522361436303641A8
:1043100036863651360437D03688374D370A38CD91
:104320003794384D380F39D53884394C39F339C57D
:10433000396E3A263AFA3AB33A8C3B3E3B1A3CCCB9
:104340003BB03C673C423D003D933D853DA73D9FD2
:104350003DBC3DB03DCB3DDD3DD13DFD3DEC3D1B8C
:104360003E0F3E363E2A3E453ED73E493E833F7491
:104370003F9F3F913FBD3FAB3FCF3FD93FE93FE537
:104380003FED3F43616C6962726174696F6E2073C7
:1043900074617475733A007665635F795B315D3A79
:1043A000007665635F795B305D3A007665635F78C0
:1043B0005B315D3A007665635F785B305D3A006340
:1043C0006E74725B315D3A00636E74725B305D3A9D
:1043D00000457872656D65207370616E206F662090
:1043E000746865205A2076616C7565732100626F70
:1043F00074746F6D00746F700000506F696E74207C
:1044000068656967687420746F6F20736D616C6C88
:104410003A20007269676874006C65667400005029
:104420006F696E7420776964746820746F6F20738D
:104430006D616C6C3A2000002C20003A2000466927
:104440006E616C2063616C63756C6174656420627D
:10445000656420706F696E74200000793A00004432
:10446000697374616E63652066726F6D206D696E2D
:104470003A00005265736574696E6720746F6F202F
:10448000666172206D61736B2E0043616C63756CA5
:104490006174696F6E206F6620746865206D61635A
:1044A00068696E6520736B657720616E64206F6646
:1044B00066736574206661696C65642E0044697377
:1044C00074616E63652066726F6D206D696E206227
:1044D00065666F72652063616C63756C6174655F9E
:1044E0006D616368696E6520736B657720616E64CA
:1044F000206F6666736574204C533A00002C2000D0
:104500003A200046696E616C206D65617375726555
:10451000642062656420706F696E742000002066FC
:1045200061696C65642E204C6F776572696E6720D7
:104530007A20746F20002C20697465726174696F31
:104540006E2000496D70726F76696E6720626564D7
:1045500020706F696E742000002C207A002C206976
:104560007465726174696F6E2000496D70726F7648
:10457000696E672062656420706F696E7420000048
:104580006C6F776572207468616E20596D696E2E4C
:10459000205920636F6F7264696E61746520636C6B
:1045A000616D70696E672077617320757365642E25
:1045B0000043616C6962726174696F6E20706F692B
:1045C0006E742000417420595F4D494E5F504F5327
:1045D00000417420593000496D70726F76696E67C2
:1045E00020626564206F666673657420616E642066
:1045F000736B657700002C20002C200020004D6597
:104600006173757265642000002C200041646A7536
:104610007374656420706F736974696F6E3A2000FB
:10462000002C20683A002C20646D61783A005061BB
:10463000727469616C20706F696E7420657374693F
:104640006D617465642072616469757320746F6F45
:1046500020736D616C6C3A20000050617274696166
:104660006C20706F696E74206469616D6574657229
:1046700020746F6F20736D616C6C3A2000746F70E2
:10468000007269676874006C6566740072696768B7
:1046900074006C65667400746F70006661696C65A7
:1046A00064202D206E6F7420666F756E640A007230
:1046B00069676874006C65667400002C2000496EA0
:1046C000697469616C20706F736974696F6E3A20E8
:1046D0000066696E642062656420696E6475637447
:1046E000696F6E2073656E736F7220706F696E7480
:1046F000207A005920736561726368696E67207261
:10470000616469757320686967686572207468619F
:104710006E20585F4D41582E20436C616D70696E5C
:10472000672077617320646F6E652E005920736572
:1047300061726368696E6720726164697573206C69
:104740006F776572207468616E20595F4D494E2EF7
:1047500020436C616D70696E672077617320646FB0
:104760006E652E005820736561726368696E6720FC
:10477000726164697573206869676865722074681E
:10478000616E20585F4D41582E20436C616D7069F9
:104790006E672077617320646F6E652E00582073FA
:1047A0006561726368696E67207261646975732000
:1047B0006C6F776572207468616E20585F4D494E4A
:1047C0002E20436C616D70696E6720776173206481
:1047D0006F6E652E00536176696E67206265642096
:1047E00063616C6962726174696F6E20766563746F
:1047F0006F727320746F20454550524F4D005065C5
:104800007270656E646963756C6172697479005A5F
:1048100065726F20706F696E7420636F727265636A
:1048200074696F6E3A005920766563746F72206CFC
:10483000656E6774683A005820766563746F7220FD
:104840006C656E6774683A00203C20005741524EF8
:10485000494E473A2046726F6E7420706F696E74CD
:10486000206E6F7420726561636861626C652E20D2
:104870005920636F6F7264696E6174653A000070ED
:10488000745B315D3A0070745B305D3A00004D65D9
:104890006173757265643A000063757272656E7457
:1048A0005F706F736974696F6E5B5A5F41584953EB
:1048B0005D3A000063757272656E745F706F736944
:1048C00074696F6E5B595F415849535D3A000063EC
:1048D000757272656E745F706F736974696F6E5B09
:1048E000585F415849535D3A00417420592D3400B6
:1048F00041742059300000636E74725B315D3A0080
:1049000000636E74725B305D3A00007665635F79B8
:104910005B315D3A00007665635F795B305D3A003C
:10492000007665635F785B315D3A00007665635FB2
:10493000785B305D3A00566563746F72733A20009D
:10494000497465726174696F6E3A2000496E7661D0
:104950006C69642062656420636F72726563746958
:104960006F6E206D61747269782E20526573657464
:1049700074696E6720746F206964656E74697479F8
:104980002E00496E76616C69642062656420636FF5
:104990007272656374696F6E206D61747269782ECE
:1049A00020582F59206178657320617265206661F7
:1049B000722066726F6D206265696E672070657225
:1049C00070656E646963756C61722E00496E766104
:1049D0006C69642062656420636F727265637469D8
:1049E0006F6E206D61747269782E205368696674E9
:1049F000206F7574206F662072616E67652E005A95
:104A000065726F20706F696E7420636F7272656378
:104A100074696F6E3A00496E76616C6964206265F4
:104A20006420636F7272656374696F6E206D617468
:104A30007269782E204C656E677468206F662074EA
:104A40006865205920766563746F72206F757420D5
:104A50006F662072616E67652E00592076656374FB
:104A60006F72206C656E6774683A00496E76616C8F
:104A700069642062656420636F7272656374696F34
:104A80006E206D61747269782E204C656E67746853
:104A9000206F6620746865205820766563746F7295
:104AA000206F7574206F662072616E67652E0058E6
:104AB00020766563746F72206C656E6774683A0067
:104AC000556E646566696E65642062656420636F17
:104AD0007272656374696F6E206D61747269782E8D
:104AE00000000043616C63756C617465206F6666DD
:104AF00073657420616E6420736B657720726574D2
:104B000075726E696E6720726573756C743A000019
:104B100000292C206572726F723A20002C20002927
:104B20003B207461726765743A2028002C200029AC
:104B30003B206D656173757265642D636F7272657C
:104B4000637465643A2028002C20006D65617375DC
:104B50007265643A202800706F696E7420230044E7
:104B60006966666572656E6365206166746572204C
:104B7000636F7272656374696F6E3A2000002C2057
:104B80000063656E7465722C2061646A7573746568
:104B9000643A2000002C20005920766563746F72FF
:104BA0002C2061646A75737465643A2000002C20BF
:104BB000005820766563746F722C2061646A757387
:104BC0007465643A200000636E74725B315D3A0074
:104BD00000636E74725B305D3A0046696E616C20F2
:104BE000636E74722076616C7565733A0000000024
:104BF00077793A0000636E74725B315D3A0000575A
:104C000065696768745F793A000077783A000063F5
:104C10006E74725B305D3A00005765696768745F57
:104C2000783A000056657279206C6974746C65205E
:104C3000736B65772064657465637465642E204FBB
:104C40007274686F676F6E616C697A696E672074E1
:104C5000686520617865732E00004D61782E2065AF
:104C600072726F72206575636C696469616E3A0077
:104C70004D61782E206572726F7220593A004D6135
:104C8000782E206572726F7220583A004D61782E2E
:104C9000206572726F72733A0000002C2065727288
:104CA0006F7220593A20002C206572726F72205862
:104CB0003A20006572726F723A200029002C2000A1
:104CC000293B207461726765743A2028002C20000B
:104CD000293B20636F727265637465643A20280013
:104CE0002C20006D656173757265643A20280000A0
:104CF0002C206572726F72203E206D61782E2065C7
:104D000072726F72206575636C696469616E0050C0
:104D10006F696E74206E6F74206F6E206669727397
:104D20007420726F77002C206572726F7220592088
:104D30003E206D61782E206572726F722059002CB2
:104D4000206572726F722058203E206D61782E208F
:104D50006572726F722058002C20776569677468DD
:104D600020593A2000506F696E74206F6E2066697A
:104D700072737420726F77003A00706F696E7420DE
:104D800023004572726F7220616674657220636FD2
:104D90007272656374696F6E3A2000002C200063A4
:104DA000656E746572206E65772C20696E7665720B
:104DB0007465643A2000002C2000592076656374E5
:104DC0006F72206E65772C20696E766572746564EB
:104DD0003A2000002C20005820766563746F722002
:104DE0006E65772C20696E7665727465643A200072
:104DF000002C2000636F7272656374696F6E2061AE
:104E00006E676C65733A2000002C2000636F72722D
:104E1000656374656420616E676C65733A20000099
:104E20002C2000636F7272656374656420782F793B
:104E30003A2000002C20002C20002C20003B206376
:104E40006F7272656374696F6E20766563746F72DA
:104E50003A2000697465726174696F6E3A200000CF
:104E6000292C206572726F723A20002C2000293B99
:104E7000207461726765743A2028002C2000206D30
:104E8000656173757265643A202800706F696E748D
:104E9000202300002C200063656E7465722C20694D
:104EA0006E697469616C3A2000002C2000592076EC
:104EB0006563746F722C20696E697469616C3A2045
:104EC00000002C20005820766563746F722C2069D6
:104ED0006E697469616C3A200063616C63756C6122
:104EE0007465206D616368696E6520736B657720FA
:104EF000616E64206F6666736574204C5300000019
:104F0000E442FCFFFFBF000058430000C042000025
:104F1000E44200004243000040410000C042000063
:104F20004041FCFFFFBF0000E442FCFFFFBF000068
:104F30005843FCFFFFBF000058430000C042000080
:104F4000E4420000C042000040410000C0420000B6
:104F50004041000042430000E442000042430000A0
:104F600058430000424345303A20005A3A20005945
:104F70003A2000583A20004D53312C4D53322050E6
:104F8000696E730A005A00205A3A00590020593AB3
:104F900000580020583A0024F4D43050C38E20C268
:104FA000A24017828B7011127A910D816CD90AA8D8
:104FB00061E108C7586607615143061E4B5D05C194
:104FC00045A7041A411104093D9803713931034082
:104FD00036DB0265339102D4305402802E1D026309
:104FE0002CEE01752AC501B028A001102781018F80
:104FF0002564012B244B01E0223401AC211F018DDB
:10500000200D01801FFC00841EED00971DDF00B8FD
:105010001CD200E61BC600201BBC00641AB200B202
:1050200019A8000A19A0006A189900D11791004028
:10503000178B00B516840031167E00B31579003A3F
:10504000157300C7146F0058146A00EE13660088C9
:1050500013630025135E00C7125B006C1257001526
:10506000125400C111510070114F0021114B00D694
:105070001049008D1047004610440002104200C045
:105080000F4000800F3E00420F3C00060F3B00CB5C
:105090000E3800930E37005C0E3500270E3400F3F7
:1050A0000D3200C10D3100900D3000600D2E003228
:1050B0000D2D00050D2C00D90C2B00AE0C29008500
:1050C0000C29005C0C2700350C27000E0C2600E88C
:1050D0000B2400C40B2400A00B23007D0B23005ADB
:1050E0000B2100390B2100180B2000F80A1F00D9F2
:1050F0000A1E00BB0A1E009D0A1D00800A1D0063D7
:105100000A1C00470A1B002C0A1B00110A1A00F790
:10511000091A00DD091900C4091900AB0919009228
:105120000917007B091800630917004C091600369F
:10513000091600200916000A091500F5081500E0F7
:10514000081400CC081400B8081400A40814009037
:105150000813007D0812006B08130058081200465F
:105160000812003408110023081100120811000170
:10517000081100F0071000E0071000D0071000C071
:10518000071000B0070F00A107100091070E008361
:10519000070F0074070F0065070E0057070E004940
:1051A000070E003B070D002E070E0020070D001311
:1051B000070D0006070D00F9060C00ED060D00E0D6
:1051C000060C00D4060C00C8060C00BC060C00B08F
:1051D000060C00A4060B0099060C008D060B00823D
:1051E000060B0077060B006C060B0061060A0057E1
:1051F000060B004C060A0042060A0038060A002E7A
:10520000060A0024060A001A060A0010060900070A
:10521000060A00FD050900F4050900EB050900E296
:10522000050900D9050900D0050900C7050900BE18
:10523000050900B5050800AD050800A50509009C95
:10524000050800940508008C050800840508007C0A
:10525000050800740508006C050700650508005D79
:10526000050700560508004E0507004705070040E2
:1052700005080038050700310507002A0507002347
:105280000507001C050600160507000F05070008A6
:1052900005060002050700FB040600F5040700EE02
:1052A000040600E8040600E2040700DB040600D55B
:1052B000040600CF040600C9040600C3040600BDAE
:1052C000040600B7040600B1040500AC040600A6FD
:1052D000040600A00405009B040600950405009048
:1052E0000406008A04050085040500800406007A8F
:1052F00004050075040500700405006B04050066D4
:10530000040500610405005C040500570405005213
:105310000405004D04050048040500430405003E53
:105320000404003A04050035040500300404002C90
:1053300004050027040400230405001E0404001AC9
:1053400004040016040500110404000D04040009FF
:105350000405000404040000040400FC030400F835
:10536000030400F4030400F0030400EC030400E869
:10537000030400E4030400E0030400DC030400D899
:10538000030400D4030400D0030400CC030400C8C9
:10539000030300C503030024F404D9201BC40C5CE0
:1053A0000E9804C4095F0265077101F405F900FB5A
:1053B00004B30048048700C1036900580355000383
:1053C000034500BE023A008402310053022A00293C
:1053D00002250004022000E4011C00C8011900AFEE
:1053E000011700980114008401130071011000617D
:1053F00001100051010E0043010D0036010B002B7E
:10540000010B0020010B00150109000C010900032C
:10541000010800FB000800F3000800EB000700E4AF
:10542000000600DE000600D8000600D2000600CC10
:10543000000500C7000500C2000500BD000400B95A
:10544000000400B5000400B1000400AD000400A990
:10545000000400A5000300A20003009F0004009BBD
:1054600000030098000300950002009300030090E1
:105470000003008D0002008B0003008800020086FC
:1054800000020084000300810002007F0002007D12
:105490000002007B00020079000200770001007624
:1054A0000002007400020072000100710002006F2F
:1054B0000002006D0001006C0002006A000100693A
:1054C0000002006700010066000100650001006441
:1054D0000002006200010061000100600001005F45
:1054E0000002005D0001005C0001005B0001005A49
:1054F000000100590001005800010057000100564A
:105500000001005500010054000100530000005349
:105510000001005200010051000100500001004F45
:105520000001004E0000004E0001004D0001004C43
:105530000001004B0000004B0001004A000100493F
:10554000000100480000004800010047000100463B
:105550000000004600010045000000450001004435
:10556000000100430000004300010042000000422F
:105570000001004100000041000100400001003F27
:105580000000003F0001003E0000003E0001003D21
:105590000000003D0001003C0000003C0000003C19
:1055A0000001003B0000003B0001003A0000003A0F
:1055B0000001003900000039000100380000003807
:1055C00000000038000100370000003700010036FD
:1055D00000000036000000360001003500000035F4
:1055E00000000035000100340000003400000034E9
:1055F00000010033000000330000003300010032DE
:1056000000000032000000320001003100000031D3
:1056100000000031000100300000003000000030C8
:105620000001002F0000002F0000002F0000002FBD
:105630000001002E0000002E0000002E0001002DB1
:105640000000002D0000002D0000002D0001002CA6
:105650000000002C0000002C0000002C0001002B9A
:105660000000002B0000002B0000002B0001002A8E
:105670000000002A0000002A0000002A0001002982
:105680000000002900000029000000290000002976
:105690000001002800000028000000280000002869
:1056A000000000280001002700000027000000275C
:1056B000000000270000002700010026000000264F
:1056C0000000002600000026000000260001002542
:1056D0000000002500000025000000250000002536
:1056E0000000002500010024000000240000002428
:1056F000000000240000002400010023000000231B
:10570000000000230000002300000023000000230D
:1057100000000023000100220000002200000022FF
:1057200000000022000000220000002200010021F1
:1057300000000021000000210000002100000021E5
:1057400000000021000000210001002000000020D6
:1057500000000020000000200000002000000020C9
:1057600000000020000000200001001F0000001FBA
:105770000000001F0000001F0000001F0000001FAD
:105780000000001F0001001E0000001E0000001E9F
:105790000000001E0000004572723A204D494E5430
:1057A000454D50204245440054656D7065726174EA
:1057B0007572652068656174656420626564207334
:1057C00077697463686564206F66662E204D494E64
:1057D00054454D5020747269676765726564202175
:1057E000004572723A204D415854454D5020424573
:1057F000440054656D7065726174757265206865EA
:105800006174656420626564207377697463686598
:1058100064206F66662E204D415854454D502074CB
:1058200072696767657265642021004572723A206B
:105830004D494E54454D50003A2045787472756478
:105840006572207377697463686564206F66662E7D
:10585000204D494E54454D502074726967676572FA
:1058600065642021004572723A204D415854454DDF
:1058700050003A20457874727564657220737769B8
:105880007463686564206F66662E204D41585445E8
:105890004D5020747269676765726564202100202D
:1058A000484F54454E4420544845524D414C205297
:1058B000554E4157415900204845415442454420E6
:1058C000544845524D414C2052554E415741590084
:1058D000544845524D414C2052554E415741590074
:1058E00042454420544845524D414C2052554E416A
:1058F0005741590020544845524D414C2052554E75
:10590000415741592028205052454845415420488C
:105910004F54454E44290020544845524D414C2097
:1059200052554E4157415920282050524548454133
:105930005420484541544245442900505245484569
:105940004154204552524F52004245442050524546
:1059500048454154204552524F520050494420413D
:1059600075746F74756E652066696E6973686564B9
:10597000212050757420746865206C617374204B0D
:10598000702C204B6920616E64204B6420636F6E25
:105990007374616E74732066726F6D2061626F76CE
:1059A0006520696E746F20436F6E666967757261FA
:1059B00074696F6E2E6800504944204175746F748D
:1059C000756E65206661696C6564212074696D651A
:1059D0006F75740020403A006F6B20543A006F6B73
:1059E00020423A00504944204175746F74756E65C9
:1059F000206661696C6564212054656D7065726113
:105A00007475726520746F6F206869676800204B39
:105A1000643A2000204B693A2000204B703A200065
:105A200020436C6173736963205049442000205403
:105A3000753A2000204B753A2000206D61783A209D
:105A400000206D696E3A200020643A2000206269CF
:105A500061733A20001000C90210012C014001229C
:105A60000170011801B0010E01F00104015002FAA9
:105A700000B002F0003003E600D003DC009004D256
:105A8000007005C800A006BE000008B400B009AA56
:105A900000D00BA000600E960060118C00001582F3
:105AA0000020197800C01D6E00A0226400B0275AA3
:105AB00000902C500000314600E0343C0010383299
:105AC00000903A2800603C1E00A03D1400803E0A71
:105AD00000203F000070012C0190012701B001223D
